:100000000C942D010C9455010C9455010C94550140
:100010000C9455010C9455010C9455010C94550108
:100020000C9455010C9455010C9426070C949507DB
:100030000C9455010C9455010C9455010C945501E8
:100040000C9455010C9455010C9455010C945501D8
:100050000C9455010C9455010C9455010C94DC063C
:100060000C9455010C9455010C9455010C945501B8
:100070000C9455010C9455010C9455010C945501A8
:100080000C9455010C9455010C9455010C94550198
:100090000C9455010C9455010C9455010C94550188
:1000A0000C9455010C9455010C945501080B000259
:1000B0000202000009040000010202000005240001
:1000C0001001052401010104240206052406000193
:1000D0000705810310004009040100020A00000026
:1000E00007050202400000070583024000000403E8
:1000F000090412010002EF02014041233680000191
:100100000102030141726475696E6F204C4C43001B
:1001100041726475696E6F204C656F6E6172646FB9
:100120000000000000240027002A002D00300000FD
:100130000000002300260029002C002F00000000F2
:1001400000250028002B002E0031000404040404C4
:10015000030405020202020403020202020606066A
:100160000606060404020202040404080201104008
:100170008040102040804080080204018040201010
:100180000201108010204040200000000200090FF2
:100190000000030401000C0000000000000000004B
:1001A000000000000000000000000000000000004F
:1001B0002A2B2800000000000000000000000000C2
:1001C00000000000000000002C9EB4A0A1A2A434F6
:1001D000A6A7A5AE362D3738271E1F20212223249F
:1001E0002526B333B62EB7B89F8485868788898A3B
:1001F0008B8C8D8E8F909192939495969798999AD7
:100200009B9C9D2F3130A3AD350405060708090AD4
:100210000B0C0D0E0F101112131415161718191AB6
:100220001B1C1DAFB1B0B50005010906A101850277
:10023000050719E029E715002501750195088102D8
:100240009501750881039506750815002573050746
:10025000190029738100C000C70911241FBECFEF08
:10026000DAE0DEBFCDBF11E0A0E0B1E0E6EFFAE1F9
:1002700002C005900D92AC35B107D9F722E0ACE58C
:10028000B1E001C01D92A630B207E1F711E0CDE266
:10029000D1E004C02197FE010E944E0CCC32D10760
:1002A000C9F70E945F0A0C94790D0C940000CF935B
:1002B000DF93FC0181819091D101482F490F55278F
:1002C000551F483051059CF5A281B381109709F55F
:1002D0002DEC31E03383228320812093CF01809362
:1002E000D0018091D201820F80832091D301A22F6F
:1002F000B091D4018A2F821B8917E8F481813D9146
:10030000C82FD0E0CC5DDE4F38838F5F8183F2CF82
:10031000D90118962D913C91199721153105C1F7F6
:100320002DEC31E019963C932E931897D5CF80E0B1
:10033000DF91CF91089581E0FBCFFC0180917C019A
:10034000882311F13FB7F89482E08093E90020916F
:10035000F200822F90E01816190614F481E090E064
:10036000882339F0289844E640937B014091F100BE
:100370004083222339F02091F200211103C02BE6A3
:100380002093E8003FBF08958FEF9FEF0895CF932C
:10039000DF931F92CDB7DEB76983DC01ED91FC914D
:1003A0000280F381E02D41E050E0BE016F5F7F4F9E
:1003B00009950F90DF91CF91089583E08093E90034
:1003C0008091F200882319F08AE38093E800089571
:1003D000CF93DF931F92CDB7DEB7FC01848595855F
:1003E00097FD08C02FEF3FEF358724870F90DF91EF
:1003F000CF910895CE0101960E949D01019719F4B5
:10040000898190E0F3CF8FEF9FEFF0CF0F931F9391
:10041000CF93DF931F92CDB7DEB78C01FC018485AB
:10042000958597FF0BC0CE0101960E949D01019713
:1004300071F4898190E0F80195878487F8018485BB
:1004400095850F90DF91CF911F910F9108958FEFB8
:100450009FEFF1CFFC018485958597FD0BC09FB779
:10046000F89482E08093E9008091F2009FBF90E0D1
:10047000019608959FB7F89482E08093E9008091F7
:10048000F2009FBF90E0089581508F3008F047C080
:10049000E82FF0E0E25BFD4F0C944E0C6B026F0214
:1004A0005D02630267028F028F028F02720278027E
:1004B0007C02800286028F028A02809180008F7700
:1004C000809380000895809180008F7DF9CF809186
:1004D0008000877FF5CF84B58F7784BD089584B57C
:1004E0008F7DFBCF809190008F778093900008954F
:1004F000809190008F7DF9CF80919000877FF5CF1C
:100500008091C0008F778093C00008958091C000D3
:100510008F7DF9CF8091C200877F8093C2000895BC
:100520001F93CF93DF93282F30E0F901E757FE4F59
:100530008491F901E659FE4FD491F901E55BFE4F34
:10054000C491CC23A9F0162F81110E944402EC2FF4
:10055000F0E0EE0FFF1FE35CFE4FA591B4918FB763
:10056000F894EC91111108C0D095DE23DC938FBF75
:10057000DF91CF911F910895DE2BF8CF3FB7F8940C
:100580008091770190917801A0917901B0917A01E1
:1005900026B5A89B05C02F3F19F00196A11DB11DDE
:1005A0003FBFBA2FA92F982F8827BC01CD01620F1A
:1005B000711D811D911D42E0660F771F881F991FD5
:1005C0004A95D1F708958F929F92AF92BF92CF92A2
:1005D000DF92EF92FF924B015C010E94BE026B0121
:1005E0007C010E94BE026C197D098E099F09683E3C
:1005F000734081059105A8F321E0821A9108A108B2
:10060000B10888EEC80E83E0D81EE11CF11C8114ED
:100610009104A104B10429F7FF90EF90DF90CF90EF
:10062000BF90AF909F908F90089540916A01509134
:100630006B01209168013091690142175307B4F4AE
:100640009091E8009570E1F39091E80092FD19C057
:100650008093F10080916A0190916B0101968F73F4
:100660009927892B19F48EEF8093E80080916A0115
:1006700090916B01019690936B0180936A0181E0E8
:10068000089580E00895EF92FF920F931F93CF9308
:10069000DF93F82E192FE62E042F81E0860F880FA6
:1006A0000E94150383E00E941503CF2DD12FEC0E7D
:1006B000FD2EF11CCE15DF05B9F007FF13C0FE01BA
:1006C00084910E941503182F80E00E941503812356
:1006D00021968111EFCFDF91CF911F910F91FF9064
:1006E000EF9008958881EDCF81E0F5CFDF92EF9212
:1006F000FF920F931F93CF93DF93D82E8A01EB01C4
:100700007B01E40EF51ECE15DF0559F0D7FE12C0B1
:10071000FE0184910E94150321968111F4CF0FEF01
:100720001FEFC801DF91CF911F910F91FF90EF90C4
:10073000DF9008958881EECF2FB7F894877080936B
:10074000E9009091E800892F807295FF04C0909194
:10075000F20080E4891B2FBF089583E00E949C0370
:1007600090E008957F928F929F92AF92BF92CF9226
:10077000DF92EF92FF920F931F93CF93DF93C82ED8
:100780008B017A0180917C01811110C08FEF9FEF66
:10079000DF91CF911F910F91FF90EF90DF90CF905D
:1007A000BF90AF909F908F907F90089580916E0141
:1007B00080FF05C08091E00082608093E000CE2D34
:1007C000DF2DD12C8AEFB82E8C2D8770982E8C2D92
:1007D0008072882E8C2D8074782E9AE3A92E209713
:1007E00019F4DD2009F452C08C2D0E949C03811164
:1007F0000AC0BA94BB2051F261E070E080E090E062
:100800000E94E302ECCF8C171D0611F00CF08C2F28
:100810009FB7F8949092E9002091E80025FD02C06E
:100820009FBFDDCF282F30E0C21BD30B882029F0DB
:100830008150A0F01092F100FBCFF801C7FC0AC074
:10084000815050F041914093F100FACF4491409390
:10085000F10031968150D0F7020F131FDD2021F0F7
:10086000A092E800D12CDCCF8091E80085FD07C084
:10087000A092E800DD24D394209791F2F3CF209743
:1008800079F6772069F2A092E800CACF5D9884E6F5
:1008900080936D01C7017CCFCF93DF93EC018091F2
:1008A0002301882331F083E00E94B2031816190651
:1008B00034F081E090E09B838A8380E090E0DF91D8
:1008C000CF910895615030F02091F100FC01208318
:1008D0000196F8CF289884E680937B010895809153
:1008E000600181110DC082E080935C0184E08093FF
:1008F0005D0110925F0110925E0181E080936001C2
:100900008CE591E00895EF92FF921F93CF93DF93D0
:100910001F92CDB7DEB77C018091DE0181112AC024
:1009200011E01093D1011093D20187ED91E09093E3
:10093000D4018093D3011092D6011092D50187E49F
:1009400091E09093CE018093CD011092D901109245
:10095000D8011092DB011092DA011093DC011093A0
:10096000DD0181EC8093D7010E946F040E94570142
:100970001093DE0182E0898341E050E0BE016F5FA9
:100980007F4F8091D0010E94B20397FD08C08091F3
:10099000D00148E050E0B70180640E94B2030F909C
:1009A000DF91CF911F91FF90EF900895E4EFF1E078
:1009B000168217821086118612861386148288EF9B
:1009C00091E00C9483040F931F93CF93DF931F92B6
:1009D000CDB7DEB782E0898342E450E06CEA70E094
:1009E00080E80E9476030E946F04DC0112960D914C
:1009F0001C910115110589F0D801ED91FC9102803F
:100A0000F381E02DBE016F5F7F4FC801099597FD0F
:100A100004C0F80100851185ECCF89810F90DF912A
:100A2000CF911F910F910895DC01FB0112962C913B
:100A30001297848195812817190641F4918180814C
:100A4000813A31F49D7F81E0913009F080E0089592
:100A50008132E1F79B3029F482811F968C9381E0EB
:100A600008959A3099F7828150968C93F8CFDC01E3
:100A7000FB0188E4808389E4818384E482831D967A
:100A80009C911D979F709F5B93831D968D919C9168
:100A900024E0969587952A95E1F78F708F5B848384
:100AA00085E00895EF92FF920F931F93CF93DF930A
:100AB000FB012081213871F52381223259F5DC01B7
:100AC00012964C91248135814217130619F5EC01D9
:100AD0000B851C85F12CE12C0115110589F0F8011D
:100AE000448155816281738180E80E9476038F3F43
:100AF000980749F0E80EF91ED8010D911C91ECCF32
:100B000081E08F87C701DF91CF911F910F91FF90F7
:100B1000EF90089590E080E0F6CFCF93DF93CDB7CC
:100B2000DEB769970FB6F894DEBF0FBECDBFFC01EC
:100B3000DB018C918F5F8C939E012D5F3F4F8DE089
:100B4000D9011D928A95E9F729E0298384E08A83F7
:100B500091E09D8383E08E832A8721E22B879C8707
:100B60009D879F8722E2288B27E02B8B25E02C8B0B
:100B70008E8B20E430E0388F2F8B998F82818B838E
:100B800095858685998B8A8B838180688D8B49E1D9
:100B900050E0BE016F5F7F4F80E00E947603699650
:100BA0000FB6F894DEBF0FBECDBFDF91CF91089591
:100BB000CF92DF92EF92FF920F931F93CF93DF9329
:100BC0006C01EB017B01E40EF51E10E000E0CE1598
:100BD000DF0581F069916D30D1F3D601ED91FC9183
:100BE0000190F081E02DC6010995892B19F00F5F66
:100BF0001F4FEDCFC801DF91CF911F910F91FF9053
:100C0000EF90DF90CF900895DC01683888F1685844
:100C100016968C911697861721F117968C91179737
:100C20008617F9F018968C9118978617D1F01996B7
:100C30008C9119978617A9F01A968C911A97861796
:100C400081F01B968C911B97861759F0FD01369603
:100C500090E080E0219121114FC08A0F9B1FFC0181
:100C60006683CD0104960E94830481E090E008959C
:100C7000862F90E067FF12C0FC01E058F10921E0E7
:100C800030E001C0220FEA95EAF714968C91149790
:100C9000822B14968C93149760E0BACF1C96ED913A
:100CA000FC911D97E80FF91F6491611109C081E063
:100CB00090E013969C938E93129790E080E00895B5
:100CC000862F807C803C69F414968C911497806404
:100CD00014968C9314976F73623309F099CF64E67E
:100CE00097CF67FFF9CF14968C9114978260149672
:100CF0008C9314976F77F0CF01968630910509F0A9
:100D0000A9CFD5CFEF92FF921F93CF93DF93EC0142
:100D1000162F0E9404067C01E8E7E10F183890F4D2
:100D2000812F90E017FF2AC0FC01E058F10981E013
:100D300090E001C0880FEA95EAF780959C818923AD
:100D40008C83E0E0DE0186E0EE2341F016969C9174
:100D50001697E91303C016961C92169781501196A8
:100D60008111F2CFCE0104960E948304C701992716
:100D7000DF91CF911F91FF90EF900895EC85FD8555
:100D8000E80FF91FE491EE2389F38E2F807C803CDD
:100D900041F48C818F7B8C83EF73E23399F6E4E628
:100DA000D1CFE7FFFACF8C818D7F8C83EF77F5CFA2
:100DB000089590E080E008951F920F920FB60F9271
:100DC00011242F933F938F939F93AF93BF93809161
:100DD000730190917401A0917501B09176013091E9
:100DE000720123E0230F2D3758F50196A11DB11D87
:100DF000209372018093730190937401A093750105
:100E0000B09376018091770190917801A09179015A
:100E1000B0917A010196A11DB11D80937701909345
:100E20007801A0937901B0937A01BF91AF919F911E
:100E30008F913F912F910F900FBE0F901F9018959B
:100E400026E8230F0296A11DB11DD2CF1F920F924B
:100E50000FB60F9211248F939F938091E100909190
:100E6000E100937F9093E10083FF0FC01092E900AF
:100E700091E09093EB001092EC0092E39093ED00E0
:100E800010927C0198E09093F00082FF22C093E0E2
:100E90009093E9009091F200992319F09AE39093CE
:100EA000E80090916D01992341F090916D0191506E
:100EB00090936D01911101C05D9A90917B019923EE
:100EC00041F090917B01915090937B01911101C071
:100ED000289A84FF18C08091E2008E7E8160809302
:100EE000E2008091E1008F7E8093E10080916E01AD
:100EF0008E7E806180936E019F918F910F900FBEC7
:100F00000F901F90189580FFF7CF8091E2008E7EA2
:100F100080618093E2008091E1008E7E8093E10009
:100F200080916E018E7E8160E5CF1F920F920FB689
:100F30000F921124CF92DF92EF92FF920F931F93A3
:100F40002F933F934F935F936F937F938F939F93D1
:100F5000AF93BF93EF93FF93CF93DF93CDB7DEB7FC
:100F60006C97DEBFCDBF1092E9008091E80083FF4F
:100F700025C068E0CE0145960E94620482EF80930E
:100F8000E8008D8987FF39C09091E80090FFFCCF81
:100F9000982F907609F034C19E894F89588D2F89FA
:100FA000F88C911131C0803861F580916F01809388
:100FB000F1001092F1008EEF8093E8006C960FB66E
:100FC000F894DEBF0FBECDBFDF91CF91FF91EF91BF
:100FD000BF91AF919F918F917F916F915F914F9151
:100FE0003F912F911F910F91FF90EF90DF90CF9045
:100FF0000F900FBE0F901F9018959EEF9093E800F2
:10100000C7CF1092F100D5CF913059F48111D3CFD1
:101010004130510581F680916F018D7F80936F0182
:10102000CACF933049F48111C6CF4130510519F62A
:1010300080916F018260F2CF953041F48091E80099
:1010400080FFFCCF20682093E300B5CF963009F0F5
:10105000A9C00B8D1C8D22E01092E90010926B014B
:1010600010926A01F2122EC010926901109268016A
:101070000E94E3041F8299E09983FA8291E09E83A3
:1010800090EA98879AEF998720916A0130916B01D5
:10109000275F3F4F3C832B838D831092E900109292
:1010A0006B0110926A01109369010093680149E095
:1010B00050E0BE016F5F7F4F80E00E9476030E9488
:1010C000E30479CF10936901009368010E946F04D3
:1010D000DC0112960D911C910115110509F451C105
:1010E000D801ED91FC910480F581E02DBE016B5E8D
:1010F0007F4FC8010995009709F03EC1F8010085AE
:101100001185EACFF3E0FF120EC08F89882309F41E
:1011100040C0823061F440E860E180E191E00E94EB
:101120004303811148CF81E28093EB0047CF8130A8
:1011300029F440E86BE084E091E0F1CF833099F747
:101140000E946F04DC011296ED90FC908E010F5FFF
:101150001F4F6801E114F10479F0D701ED91FC9182
:101160000680F781E02DB801C7010995080F111D10
:10117000F701E084F184EECFD8011C92F6010190D2
:101180000020E9F73197BF016C197D0940E0C601E5
:10119000C6CF6EEE70E0FB01449150E080E80E9403
:1011A000760309CF973009F4BECF983021F481E05F
:1011B0008093F10000CF993009F0FDCE837009F0E3
:1011C000B2CFE5E2F1E081E031E096E32191222324
:1011D00071F08093E9003093EB00DF0111972C91BF
:1011E0002093EC009093ED008F5F873079F78EE7C6
:1011F0008093EA001092EA008F8980937C01DBCE15
:101200008B8D9C8D1092E90010926B0110926A01F7
:101210009093690180936801898D811192C08E89B4
:101220009D89913A49F4813209F07DCF47E050E041
:101230006CE171E080E0B3CF913209F074CF83327A
:1012400069F48F89988DB0E0A0E0809300019093BD
:101250000101A0930201B0930301ADCE803269F485
:101260008091E80082FFFCCF67E08CE191E00E9472
:1012700062048BEF8093E8009ECE823209F09BCE11
:101280008F8980932301EEEFFFE7859194918B3F47
:101290009C4D51F1E0E0F8E080911C0190911D011E
:1012A000A0911E01B0911F01803B9440A105B105A2
:1012B000F1F48091230180FD1AC0EE3F8AE0F80727
:1012C00089F587E797E79183808380916000809319
:1012D0006C0188E19BE00FB6F894A89580936000BC
:1012E0000FBE9093600067CEEEEFFAE0D5CF80811D
:1012F00091818737974709F05ECEA895809160006D
:1013000088618093600080916C0180936000EE3F63
:101310002AE0F20789F08091FE0A9091FF0A9183FA
:10132000808349CE808191818737980751F29093CD
:10133000FF0A8093FE0AC5CF1092FF0A1092FE0AA0
:101340003ACE0E946F04DC0112960D911C9101159A
:10135000110509F4E8CED801ED91FC910190F081DE
:10136000E02DBE016B5E7F4FC8010995811123CE30
:10137000F80100851185EBCF181619060CF41BCE69
:10138000D2CEF1E0FF12BECE62EF70E004CFCF9379
:101390001092800110927F0188EE93E0A0E0B0E00F
:1013A0008093810190938201A0938301B093840183
:1013B00085E391E090937E0180937D018FEF9FEF15
:1013C00090938A01809389011092F7011092F6019F
:1013D00083E591E09093F5018093F4018091EC0115
:1013E000811113C01092E7011092E60188E292E0A9
:1013F0009093E9018093E8018FE290E09093EB01F4
:101400008093EA0181E08093EC018091DE018111FB
:101410002AC0C1E0C093D101C093D20187ED91E011
:101420009093D4018093D3011092D6011092D501EC
:1014300087E491E09093CE018093CD011092D90181
:101440001092D8011092DB011092DA01C093DC01F6
:10145000C093DD0181EC8093D7010E946F040E944C
:101460005701C093DE01E091D801F091D901309786
:10147000E9F486EE91E09093D9018093D8018091B0
:10148000DA019091DB012091EA013091EB01820FAA
:10149000931F9093DB018093DA0188EA91E09093A7
:1014A000010280930002CF910895FC018081918117
:1014B0000097D9F786EE91E091838083E0CF78940E
:1014C00084B5826084BD84B5816084BD85B5826049
:1014D00085BD85B5816085BD80916E0081608093FA
:1014E0006E00109281008091810082608093810063
:1014F0008091810081608093810080918000816073
:10150000809380008091910082608093910080910F
:101510009100816080939100809190008160809320
:1015200090008091C10084608093C1008091C100CF
:1015300082608093C1008091C10081608093C1006E
:101540008091C30081608093C3008091C00082605D
:101550008093C0008091C20081608093C20080911E
:101560007A00846080937A0080917A008260809310
:101570007A0080917A00816080937A0080917A006D
:10158000806880937A0010927C0110926F01109213
:101590006E018091D70081608093D70080EA8093AC
:1015A000D80089B5806189BD89B5826089BD09B4DB
:1015B00000FEFDCF61E070E080E090E00E94E30279
:1015C0008091D8008F7C80618093D8008091E0006A
:1015D000807F8093E0008091E1008E7E8093E10027
:1015E0008DE08093E200559A209A8AE090E00E9474
:1015F000540CEC01892BD1F084E08883898388E046
:1016000091E09B838A8384E091E09D838C838CE0CE
:1016100091E09F838E831886198610E088811817C1
:1016200040F130E08981381708F453C0D09371013C
:10163000C093700188EA91E09093010280930002C8
:1016400068EE73E080E090E00E94E30290E0E92E13
:1016500090E0F92EC0917001D0917101B12CA12CB4
:10166000209709F079C0E114F104A1F30E94000071
:10167000F1CF212F30E0EA81FB81E20FF31F80815F
:1016800090E0FC01E659FE4F4491855B9E4FFC01C2
:101690008491882399F090E0880F991FFC01EF5DF9
:1016A000FE4FA591B491FC01E35CFE4F85919491AE
:1016B0008FB7F894EC91E42BEC938FBF8A819B81D8
:1016C000280F391F61E0F90180810E9490021F5F9D
:1016D000A5CFEC81FD81E30FF11D808190E0FC013D
:1016E000E659FE4F2491855B9E4FFC01849188232F
:1016F000C9F090E0880F991FFC01EF5DFE4F459106
:101700005491FC01E35CFE4FA591B4919FB7F8940E
:10171000FA016081822F809586238083EC912E2BA5
:101720002C939FBF3F5F7ECF0A2D10E0EA81FB81A3
:10173000E00FF11F60E080810E949002812C89817E
:101740008816C0F18A819B81080F191F61E0F8019A
:1017500080810E949002A3948881A81628F388852E
:101760008B1519F0B886B110B9868985882309F4DC
:101770007ACF1986873309F485C00CF055C08333BE
:1017800009F47EC00CF048C0813309F481C00CF02C
:1017900075C061EB803309F066CF84EF91E00E9461
:1017A00004060E94D60464E670E080E090E00E94A7
:1017B000E30259CFC82CD12CEC81FD81EC0DFD1D2D
:1017C000208130E0F901E757FE4F8491F901E65995
:1017D000FE4F9490F901E55BFE4F749071100DC0BF
:1017E00029818E819F81A29E800D911D1124C80E9A
:1017F000D91EF601B0808394A2CF81110E944402C9
:10180000E72DF0E0EE0FFF1FE15DFE4FA591B491D3
:10181000EC919E2229F3EFCF64E3853379F063E303
:10182000863364F065E30AC08E3391F09CF489330B
:1018300069F154F169E38C3309F015CF84EF91E03D
:101840000E94820664E670E080E090E00E94E3027D
:1018500060EBA3CF8337F1F024F460E7803771F3B6
:1018600002CF8537C9F08C3709F0FDCE62EB84EFEB
:1018700091E00E9404060E94D604F5CE61E3DECF1B
:1018800062E3DCCF66E3DACF67E3D8CF68E3D6CF95
:1018900060E3D4CF63E7D2CF65E7D0CFEE0FFF1F71
:1018A0000590F491E02D09940F931F93CF93DF934C
:1018B0008230910510F482E090E0E0910402F09112
:1018C000050230E020E0B0E0A0E0309799F4211567
:1018D000310509F44AC0281B390B24303105D8F5ED
:1018E0008A819B816115710589F1FB019383828354
:1018F000FE0111C0408151810281138148175907AF
:10190000E0F04817590799F4109761F012960C937C
:10191000129713961C933296CF01DF91CF911F91AE
:101920000F9108950093040210930502F4CF21153E
:10193000310551F04217530738F0A901DB019A0134
:10194000BD01DF01F801C1CFEF01F9CF909305028E
:1019500080930402CDCFFE01E20FF31F8193919398
:101960002250310939832883D7CF20910202309148
:101970000302232B41F420912D0130912E0130934D
:1019800003022093020220912B0130912C0121159A
:10199000310541F42DB73EB740912F0150913001F0
:1019A000241B350BE0910202F0910302E217F307CA
:1019B000A0F42E1B3F0B2817390778F0AC014E5FBF
:1019C0005F4F2417350748F04E0F5F1F50930302F7
:1019D00040930202819391939FCFF0E0E0E09CCF8F
:1019E000CF93DF930097E9F0FC01329713821282C4
:1019F000A0910402B0910502ED0130E020E01097C3
:101A0000A1F420813181820F931F20910202309135
:101A100003022817390709F061C0F0930302E0932D
:101A20000202DF91CF910895EA01CE17DF07E8F5B2
:101A30004A815B819E0141155105B1F7E901FB83A4
:101A4000EA8349915991C40FD51FEC17FD0761F442
:101A5000808191810296840F951FE9019983888383
:101A6000828193819B838A83F0E0E0E012968D91DE
:101A70009C9113970097B9F52D913C911197CD0149
:101A80000296820F931F20910202309103022817C1
:101A9000390739F6309751F5109205021092040279
:101AA000B0930302A0930202BCCFD383C2834081D0
:101AB0005181840F951FC817D90761F44E5F5F4F9E
:101AC00088819981480F591F518340838A819B8166
:101AD000938382832115310509F0B0CFF09305027D
:101AE000E09304029ECFFD01DC01C0CF138212827D
:061AF000D7CFF894FFCFF0
:101AF600FFFFFFFF060708090203040531323373AF
:101B060034353675373839703C307C3E00E100009C
:101B16000000000000C18081000000000006028075
:101B26000000000000C7014C04AD03DD012A02E8F5
:101B36000106020000000014058D05520537050058
:0C1B46000000008206D805D906D8060071
:00000001FF
